:100000000C9462000C948A000C948A000C948A0070
:100010000C948A000C948A000C948A000C948A0038
:100020000C948A000C948A000C948A000C948C0026
:100030000C948A000C948A000C948A000C948A0018
:100040000C94D9040C948A000C9429030C9470032A
:100050000C948A000C948A000C948A000C948A00F8
:100060000C948A000C948A000000000024002700F1
:100070002A0000000000250028002B0000000000DE
:1000800023002600290004040404040404040202DA
:100090000202020203030303030301020408102007
:1000A0004080010204081020010204081020000012
:1000B0000007000201000003040600000000000029
:1000C0000000500411241FBECFEFD8E0DEBFCDBF2B
:1000D00011E0A0E0B1E0E6E0FBE002C005900D9287
:1000E000A231B107D9F711E0A2E1B1E001C01D9240
:1000F000AC3EB107E1F710E0C4ECD0E004C02297B9
:10010000FE010E947D05C23CD107C9F70E94A004F0
:100110000C9481050C9400001F920F920FB60F9261
:1001200011242F933F934F935F936F937F938F93FC
:100130009F93AF93BF93EF93FF9380913B0187FF12
:1001400005C010928500109284002BC020913B01C5
:10015000332727FD30958091160190E02817390745
:1001600004F580913B01992787FD9095FC01EE0FE6
:10017000FF1FE80FF91FE95EFE4F808186FF11C067
:1001800080913B01992787FD9095FC01EE0FFF1FA1
:10019000E80FF91FE95EFE4F80818F7360E00E94D7
:1001A000D40280913B018F5F80933B0120913B0102
:1001B000332727FD30958091160190E028173907E5
:1001C0000CF04EC080913B018C300CF049C0209166
:1001D00084003091850080913B01992787FD90959F
:1001E000FC01EE0FFF1FE80FF91FE95EFE4F818152
:1001F0009281280F391F30938900209388008091C5
:100200003B01992787FD9095FC01EE0FFF1FE80F3A
:10021000F91FE95EFE4F808186FF2BC080913B0174
:10022000992787FD9095FC01EE0FFF1FE80FF91F3E
:10023000E95EFE4F80818F7361E00E94D40219C095
:1002400080E49CE905C0809184009091850004962B
:1002500090938900809388008FEF80933B0109C0C1
:100260008091840090918500049680549C4940F3CD
:10027000EACFFF91EF91BF91AF919F918F917F91C5
:100280006F915F914F913F912F910F900FBE0F9003
:100290001F901895962F813039F0813038F08230D8
:1002A00039F0833069F406C084E005C08BE003C0F8
:1002B0008DE001C081E160E0911161E00E94D40213
:1002C000089582E060E00E94950282E061E00E9471
:1002D000D40283E061E00E94950283E060E00E9426
:1002E000D4028BE061E00E94950284E061E00E940C
:1002F00095028DE061E00E94950281E161E00E943B
:1003000095028BE060E00E94D40284E060E00E94ED
:10031000D4028DE060E00E94D40281E160E00E949E
:10032000D40285E061E00E94950286E061E00E94CF
:1003300095028AE061E00E9495028CE060E00E94F4
:10034000950288E060E00E94950289E061E00E94E9
:10035000950289E060E00E94D4028FE78093120149
:1003600008951F93CF93DF9310E0C0E0D0E080E0CA
:100370000E947302C80FD91F1F5F1034C1F7A096E7
:1003800046E0D695C7954A95E1F72296D695C7954A
:10039000D695C795C0931201DF91CF911F91089513
:1003A0000E9461010E94B10108950E94D001089548
:1003B00080E00E9473029595879595958795209189
:1003C0001201821B08950E94D801992787FD9095FC
:1003D00097FF03C0909581959F4F08956F927F92EC
:1003E0008F929F92AF92BF92CF92DF92EF92FF9245
:1003F0000F931F930E94D0018091000180931301FD
:1004000010921501109214010E94E301A82E609031
:100410001301609114017091150180E090E0262D88
:1004200030E040E050E00E945C057B018C0180E8F8
:1004300090E0A0E0B0E0E80EF91E0A1F1B1FBB24ED
:10044000E3E0AA0CBB1CEA95E1F7CC24DD24609420
:10045000772488249924C601B501A40193010E9440
:100460005C05E60EF71E081F191FEF2CF02E012F5A
:100470001127F0921501E092140163E0F694E794DD
:100480006A95E1F7FF2495E6E916F10418F083E098
:1004900061E002C083E060E00E944A01ACE4EA1639
:1004A000F10418F082E061E002C082E060E00E94A6
:1004B0004A01B3E3EB16F10418F081E061E002C0F9
:1004C00081E060E00E944A018AE1E816F10418F038
:1004D00080E061E002C080E060E00E944A0194CFC9
:1004E0000E94EE010895982F8E3008F09E5097706C
:1004F000809101018295880F880F807C892B8093E1
:100500007C0080917A00806480937A0080917A00E8
:1005100086FDFCCF2091780040917900942F80E0F7
:1005200030E0282B392BC9010895CF93DF93482F52
:1005300050E0CA0186569F4FFC0134914A575F4FE5
:10054000FA018491882369F190E0880F991FFC01DA
:10055000E859FF4FA591B491FC01EE58FF4FC591AA
:10056000D491662351F42FB7F8948C91932F9095E2
:1005700089238C93888189230BC0623061F42FB763
:10058000F8948C91932F909589238C938881832B59
:1005900088832FBF06C09FB7F8948C91832B8C93D0
:1005A0009FBFDF91CF910895482F50E0CA01825537
:1005B0009F4FFC012491CA0186569F4FFC019491E4
:1005C0004A575F4FFA013491332309F440C0222384
:1005D00051F1233071F0243028F42130A1F0223081
:1005E00011F514C02630B1F02730C1F02430D9F411
:1005F00004C0809180008F7703C0809180008F7D40
:100600008093800010C084B58F7702C084B58F7D41
:1006100084BD09C08091B0008F7703C08091B00085
:100620008F7D8093B000E32FF0E0EE0FFF1FEE58B8
:10063000FF4FA591B4912FB7F894662321F48C91C4
:100640009095892302C08C91892B8C932FBF08959C
:1006500008951F920F920FB60F9211242F933F937C
:100660004F938F939F93EF93FF934091C6002091F8
:100670007C0130917D012F5F3F4F2F73307080914F
:100680007E0190917F012817390759F0E0917C0194
:10069000F0917D01E45CFE4F408330937D01209317
:1006A0007C01FF91EF919F918F914F913F912F91FD
:1006B0000F900FBE0F901F901895E091D001F09110
:1006C000D101E05CFF4F8191919120813181821BAA
:1006D000930B8F739070892B11F00E94280308955B
:1006E0001F920F920FB60F9211242F933F938F9367
:1006F0009F93EF93FF932091C0013091C1018091AE
:10070000C2019091C3012817390731F48091C100CB
:100710008F7D8093C10014C0E091C201F091C301AC
:10072000E058FE4F20818091C2019091C301019653
:100730008F7390709093C3018093C2012093C60081
:10074000FF91EF919F918F913F912F910F900FBE4D
:100750000F901F901895DC011C96ED91FC911D9750
:10076000E05CFF4F2191319180819181281B390BF1
:100770002F733070C9010895DC011C96ED91FC9136
:100780001D97E05CFF4F20813181E054F040DF0194
:10079000AE5BBF4F8D919C9111972817390719F4C3
:1007A0002FEF3FEF07C08D919C91E80FF91F8081DB
:1007B000282F30E0C9010895DC011C96ED91FC91D1
:1007C0001D97E05CFF4F20813181E054F040DF0154
:1007D000AE5BBF4F8D919C9111972817390719F483
:1007E0002FEF3FEF10C08D919C911197E80FF91FEB
:1007F00020818D919C91119701968F739070119625
:100800009C938E9330E0C9010895FC0186859785FD
:10081000DC01A05CBF4FFC01EE5BFF4F2D913C91D2
:1008200011978081918128173907C1F70895CF93D7
:10083000DF93EC01EE85FF85E05CFF4F2081318185
:10084000E054F0402F5F3F4F2F733070DF01AE5BFD
:10085000BF4F8D919C91119728173907D1F3E05C18
:10086000FF4F80819181E054F040E80FF91F6083D1
:10087000EE85FF85E05CFF4F31832083EE89FF89A1
:10088000208181E090E00D8C02C0880F991F0A94AE
:10089000E2F7282B208381E090E0DF91CF9108954B
:1008A0001092C7011092C60188EE93E0A0E0B0E07C
:1008B0008093C8019093C901A093CA01B093CB0162
:1008C00086E091E09093C5018093C4018CE391E0B0
:1008D0009093D1018093D00180E891E09093D3016F
:1008E0008093D20185EC90E09093D5018093D40160
:1008F00084EC90E09093D7018093D60180EC90E057
:100900009093D9018093D80181EC90E09093DB0122
:100910008093DA0186EC90E09093DD018093DC0116
:1009200084E08093DE0183E08093DF0187E08093A1
:10093000E00185E08093E10181E08093E201089588
:10094000CF93DF930E9421050E94D501CDE5D3E02E
:100950000E9470022097E1F30E945D03F9CFCF92CD
:10096000DF92EF92FF920F931F93CF93DF937C015F
:100970006B018A01C0E0D0E00FC0D6016D916D011E
:10098000D701ED91FC910190F081E02DC70109950F
:10099000C80FD91F015010400115110571F7CE0184
:1009A000DF91CF911F910F91FF90EF90DF90CF904B
:1009B00008951F920F920FB60F9211242F933F9319
:1009C0008F939F93AF93BF938091E7019091E8013C
:1009D000A091E901B091EA013091EB010196A11DCE
:1009E000B11D232F2D5F2D3720F02D570196A11D0E
:1009F000B11D2093EB018093E7019093E801A09350
:100A0000E901B093EA018091E3019091E401A091A2
:100A1000E501B091E6010196A11DB11D8093E301AE
:100A20009093E401A093E501B093E601BF91AF91EB
:100A30009F918F913F912F910F900FBE0F901F901C
:100A40001895789484B5826084BD84B5816084BD36
:100A500085B5826085BD85B5816085BDEEE6F0E037
:100A6000808181608083E1E8F0E010828081826093
:100A70008083808181608083E0E8F0E08081816014
:100A80008083E1EBF0E0808184608083E0EBF0E044
:100A9000808181608083EAE7F0E0808184608083E8
:100AA0008081826080838081816080838081806892
:100AB00080831092C1000895629FD001739FF0015E
:100AC000829FE00DF11D649FE00DF11D929FF00DDE
:100AD000839FF00D749FF00D659FF00D9927729F15
:100AE000B00DE11DF91F639FB00DE11DF91FBD01A0
:100AF000CF0111240895EE0FFF1F0590F491E02D12
:060B00000994F894FFCFF8
:100B0600E601000000001704AF04AB03DC03BC03DE
:020B16000504D4
:00000001FF
